:020000040800F2
:10000000002000202F1200082912000829120008E1
:100010002912000829120008291200080000000017
:100020000000000000000000000000002D12000889
:10003000291200080000000029120008E50100084C
:100040002B1200082B1200082B1200082B1200089C
:100050002B1200082B1200082B1200082B1200088C
:100060002B1200082B1200082B1200082B1200087C
:100070002B1200082B1200082B1200082B1200086C
:100080002B1200082B1200082B12000800000000A1
:100090000000000000000000000000002B1200081B
:1000A0002B1200082B1200082B1200082B1200083C
:1000B0002B1200082B1200082B1200082B1200082C
:1000C0002B1200082B1200082B1200082B1200081C
:1000D0002B120008A51200082B1200082B12000892
:1000E0002B1200082B1200082B1200082B120008FC
:1000F0002B1200082B120008000000000000000076
:100100002B120008000000002B1200082B12000820
:100110002B1200082B1200082B1200082B120008CB
:100120002B1200082B1200082B1200082B120008BB
:100130002B12000801460023074AD8B2814202D19F
:10014000064801F07DBA10780028F9D012F8010BAA
:100150000028FBD10133F0E70C4F0008A855000838
:100160002DE9F0418CB004460146684603F09AFE42
:1001700018BB204604F09CFEC6B2771C2744154DE0
:100180006846294603F0CBFE8046B0B9AB7DA3B1EB
:100190002B7ADB0614D5104A05F116011388384670
:1001A000013313802F23A35504F024FE2046FFF7CC
:1001B000D7FF04F806800028E1D00CB0BDE8F0813C
:1001C000064A138801331380054A2B6811680B44D3
:1001D0001360D4E76C0400208C1A00208E1A0020D3
:1001E000580900200A4A136801331360094A13882A
:1001F00001339BB2B3F5FA7F23BF00231380064A75
:10020000138022BF136883F44073136002F044B874
:1002100054090020040000200C10014007B5684676
:1002200001F0DCFBC0B19DF803009DF80230000432
:1002300040EA43509DF8043040EAC3209DF8053061
:1002400040EA43109DF8063040EA5300BDF8003004
:10025000A3F2BC7340EA436003B05DF804FB00BF47
:10026000AB4A2DE9F04F13689BB043F010031360C5
:10027000A2F58032143A13684FF4E13023F00F03F3
:1002800043F003031360136823F0F00343F03003DB
:1002900013604FF480729F4B1A6045F6BF539E4A1D
:1002A0001360536007229D4B1A6001F073F89C4B5A
:1002B0009C4A9D481A609D4B9D4A1A6001F0CCF8FB
:1002C0009C4801F0C9F840F2B5119B4801F0B8F91B
:1002D00001F0CEFA002861D018A801F07FFB9DF84C
:1002E00066009DF8633002909DF865009DF86220DD
:1002F00001909DF86400BDF8601000908F4801F0F7
:100300009FF900274FF48055B8468D4C3E2001F0F0
:1003100089F84FF480718A4801F018FA894B0E93DE
:100320002378642B00F088813CD83F2B7ED0622B51
:10033000ECD1854B0E936378662B00F02A8300F294
:10034000A782642B00F0CA82652BDFD10FA90EA80B
:1003500001F03AFA0028D9D010A90EA801F034FA19
:100360007A4E002840F0D982DFF8F0A1DFF8F09152
:100370000F995046725C89B201F062F94FF48071B6
:10038000204601F0E3F923780E942E2BBED01F2BCC
:1003900000F2CF820F9B01330F93E9E76C4801F025
:1003A0005BF8AEE76D2B45D0742B00F0EB86662B27
:1003B000ACD1654B0E936378613B192BA6D801A293
:1003C00052F823F0CD0E0008C9100008810C000877
:1003D000C30C00088F0C00080D03000891100008E2
:1003E0000D030008B10900080D030008B90E00084C
:1003F000F30A0008DD1000085D0E0008530C000829
:100400000D030008A51000082B0D0008D3090008F3
:100410000B0F0008930E0008A70E00089D0D0008A2
:10042000A90F00080D0300082D110008494801F02C
:1004300013F86BE7444B0E936378652B00F09280C2
:10044000662B42D0642B7FF461AF434B0E93A378AD
:10045000682B27D0772B27D104230FA90EA811933F
:1004600001F0B2F900283FF451AF10A90EA801F035
:10047000ABF920B98023119A93FBF2F31093102665
:100480006FF00F090F9B0E93119B109A96FBF3F1DF
:1004900091420BDD002A3FF439AF0E99084601F076
:1004A00007F933E70223D8E70123D6E70A460E9976
:1004B000084601F0FDF80E9B10330E93119B99FB3B
:1004C000F3F2109B13441093DEE70FA90EA801F07E
:1004D0007BF900283FF41AAF10A90EA801F074F9B7
:1004E00000283FF413AF11A90EA801F06DF9002800
:1004F0003FF40CAF119B5A1E1192002B3FF406AF34
:10050000DDE90F321A700F9B01330F93F2E700BF42
:10051000181002401010014014E000E010E000E06C
:10052000941A00205D130008D9550008901A002085
:100530002D130008F1550008FD5500080E5600085F
:100540008C1900208D1900208E1900205C090020D4
:1005500037560008EF4F00088F190020EC560008AE
:10056000F7560008AB4B0E93A378682B3FD0772B40
:100570003FD104230FA90EA8119301F025F90028FB
:100580003FF4C4AE10A90EA801F01EF9002832D124
:10059000A14EDFF8B492DFF8B4A2119B0F99022BA1
:1005A00040D0042B41D150460A6801F049F84FF47D
:1005B000807120460E9401F0C9F80E9B1B782E2BFB
:1005C0003FF4A4AE1F2B0DD910A90EA801F0FCF822
:1005D0000028E2D0DDE90F321199022928D0042940
:1005E00028D11A600F9B119A13440F93D5E7022369
:1005F000C0E70123BEE71199DDE90F3202290DD0D2
:1006000004290DD11A600F9B119A10A913440EA84A
:100610000F9301F0D9F80028EDD177E61A80F2E7C0
:100620001A70F0E70A883046BFE70A784846BCE708
:100630001A80D7E71A70D5E7784B0E936378642B4E
:1006400000F09F801DD8632B7FF460AE714B0E933A
:10065000A378652B00F0FC80732B7FF457AE0FA9B5
:100660000EA801F0B1F800283FF450AE00229DF82A
:100670003C00114601F026FD0146694800F0E0FF0C
:1006800044E6692B00F0B680732B7FF43FAE0FA9D0
:100690000EA801F099F800283FF438AE10AA012105
:1006A0009DF83C0001F00EFD18B910995D4800F06E
:1006B000C7FF10AA03219DF83C0001F003FD18B903
:1006C0001099594800F0BCFF0DF1370232219DF816
:1006D0003C0001F0F7FC20B99DF83710534800F0BA
:1006E000AFFF534A33219DF83C0001F0EBFC504E24
:1006F000814640B94F4800F0AFFE01231022494621
:10070000304600F0D5FF4A4A34219DF83C0001F004
:10071000D9FC814640B9484800F09EFE01231022D2
:100720004946434800F0C4FF414A35219DF83C004A
:1007300001F0C8FC814640B9404800F08DFE01231D
:10074000042249463A4800F0B3FF394A36219DF861
:100750003C0001F0B7FC814600287FF4D7AD384853
:1007600000F07AFECDF8489012993F293FF6CEADC1
:1007700001231022701800F09BFF129B103312937C
:10078000F2E70FA90EA801F01FF8A0B9CDE90F8775
:100790009DF83C80109EDFF8989001233246494630
:1007A000404601F0EBFB824668B101461C4800F070
:1007B00047FF3746AAE510A90EA801F005F8002862
:1007C0003FF4A4ADE4E7324641461E4800F038FF4E
:1007D000771CCDF838900123514610220E9800F076
:1007E00067FF0E9B0AF1100A1033BAF5007F0E93D3
:1007F000F1D18BE50FA90EA800F0E6FF00283FF429
:1008000085AD9DF83C0001F0D1FA0146044800F0A6
:1008100017FF7BE58F1900205B5600088E1900201A
:10082000755600088C560008A5560008BE560008EC
:100830005C090020CE560008D4560008DA5600089D
:10084000E05600087C560008685600084E5600081E
:100850000FA90EA800F0B8FF00283FF457AD16A965
:100860000EA800F0B1FF00283FF450AD17A90EA864
:1008700000F0AAFF00283FF449AD16AA04219DF814
:100880003C0001F01FFC01469F4800F0D9FE3DE509
:10089000722B5DD0772B7FF439AD0FA90EA800F035
:1008A00093FF00283FF432AD10A90EA800F08CFF92
:1008B00000283FF42BAD11A90EA800F085FF08B960
:1008C00001231193DDE9102390499DF83C0001F0CC
:1008D00095FB01468E4800F0B3FE17E50FA90EA860
:1008E00000F072FF00283FF411AD0F9E874B334498
:1008F0000E9320231493149B002B3FF407AD012388
:10090000314610220E9800F0D3FE149B1036013BA6
:1009100014930E9B10330E93EDE70F9B10A95A1CF6
:100920000F92109A0EA8F25400F04EFF0028F4D156
:10093000ECE410A90EA800F047FF28B10F9B5A1C49
:100940000F92109AF25413E5484600F085FD0FE52A
:100950000FA90EA800F038FF00283FF4D7AC10A96B
:100960000EA800F031FF00283FF4D0AC11A90EA86A
:1009700000F02AFF08B901231193DDE91023634930
:100980009DF83C0001F0FAFA0146614800F058FE7B
:10099000BCE40FA90EA800F017FF00283FF4B6AC86
:1009A0004FF480529DF83C10584804F065F9ADE4CE
:1009B00010A90EA800F008FF00B910909DF8402083
:1009C0005449554802F052FEFFF7B4FB9EE4013053
:1009D0000E900E980378202BF9D015AA0FA903F0DA
:1009E000DCFA10B1FFF7A6FB90E4159B4B481A7890
:1009F0004B4B03EB8203D3F86C1600F021FE159BE2
:100A000048485989490200F01BFE159B46489978D1
:100A100000F016FE159B1A78022A03D8198943485C
:100A200000F00EFE159B4248196A00F009FE159B66
:100A30004048D969354E023900F002FE159B3E4808
:100A4000596A00F0FDFD159B3C48996A00F0F8FDDD
:100A5000159B3B48D96A00F0F3FD159B3948196B8B
:100A600000F0EEFD10AA31460E9803F004FD814619
:100A700010B1FFF75FFB49E4334B3078334A31461E
:100A800000280CBF1046184600F0DAFD10993048D7
:100A90008AB2DFF8D0B0090CDFF8CCA02D4E00F000
:100AA000CFFD2D48ABF80090AAF80090C6F8009052
:100AB00000F0C6FD0E98FFF753FB10B1FFF73AFBAD
:100AC00024E4DDF854C00F98BCF80A20BBF80030CD
:100AD00052085043BAF800100190DCF81C000238AC
:100AE0004243009232681D4800F0AAFD0EE4013135
:100AF0000E910E990B78202BF9D0194803F0D2F9FA
:100B0000A0B3FFF717FB01E4755600085C0900204D
:100B1000FC560008E857000834020020035700087C
:100B20000C4F000812570008275700083C570008D0
:100B30005357000866570008805700089A57000866
:100B4000B1570008D0570008B5550008C85500082F
:100B5000E9570008580900203859000802580008D1
:100B60005C1900208C1A00208E1A0020CDE912009A
:100B7000AD4EDFF8DCB20F90AB49584603F0CFF929
:100B800000284CD1B37D002B49D0307A3368C2069F
:100B90003DD54421139A0132139210F0010F0CBF7E
:100BA0002D22522210F0020F0CBF4FF02D0E4FF0ED
:100BB000480E10F0040F0CBF4FF02D094FF05309F1
:100BC00010F0200F0CBF4FF02D0A4FF0410AB6F87D
:100BD00006C00B92954AB088CDE90732CCF3451395
:100BE00006934FEADC23059300F01F030493C0F340
:100BF0004313400A00F2BC700393CDE901A0CDF885
:100C0000009073460B9A8A4800F01AFDB4E7129AD6
:100C10002D21013212920F9A1A440F92BDE70F9ABA
:100C200012998448139B00F00BFD15AA0FA90E988A
:100C300003F0B3F948B9159B0F995B897E48594376
:100C4000490200F0FDFCFFF761BBFFF773FAFFF705
:100C50005DBB0FA90EA800F0B7FD00283FF456AB0E
:100C60000E990B78202B08D09DF83C20734802F099
:100C700023FDFFF75FFAFFF749BB01310E91EFE764
:100C80006E4802F0A4FFFFF755FAFFF73FBB0FA92C
:100C90000EA800F099FD00283FF438AB674E0F997D
:100CA000304603F066F88146FFF744FAB9F1000FC9
:100CB0007FF42CAB72696248114600F0C1FCFFF76B
:100CC00025BB0FA90EA800F07FFD00283FF41EAB46
:100CD0004FF0000B594EDFF870A1D6F814900F9B1F
:100CE000002B3FF413AB0F2B85BF1022103B149346
:100CF000149288BF0F93149A14AB5146304698BF94
:100D0000CDF83CB002F0B6FD18B1FFF713FAFFF7CB
:100D1000FDBA149A002A3FF4F9AA49460123504625
:100D200000F0C6FC09F11009D9E70FA90EA800F0E0
:100D30004BFD00283FF4EAAA0026DFF81891DFF8FF
:100D400008A1DFF8F8B01096C9F800600F9B83B1D6
:100D50009D4297BF5B1B149314950F93149A13AB8A
:100D60005146584688BF0F9602F084FD70B1FFF7D8
:100D7000E1F9D9F8002010991AB1D9F80020B1FB97
:100D8000F2F2304800F05CFCFFF7C0BA139A109BF7
:100D900013441093149B9A42D8D0EAE70FA90EA8E7
:100DA00000F012FD00283FF4B1AA10A90EA800F02F
:100DB0000BFD00283FF4AAAA0026DFF898902A46E7
:100DC0009DF840102048DFF880A0DFF870B003F0F5
:100DD00053FF1096C9F800600F9B83B19D4297BFE7
:100DE0005B1B149314950F93149A13AB51465846FA
:100DF00088BF0F9602F0E4FD70B1FFF79BF9D9F8B8
:100E0000002010991AB1D9F80020B1FBF2F20F4876
:100E100000F016FCFFF77ABA139A109B1344109354
:100E2000149B9A42D8D0EAE76C0400208204002088
:100E3000525800087E580008A758000804050020F2
:100E4000BB580008CC5800085C090020ED58000889
:100E50005C1900205409002001300E900E98037890
:100E6000202BF9D0202103F051FF00283FF44EAA97
:100E7000002300F8013B01460B780130202BFAD00B
:100E80000E9803F029FAFFF755F9FFF73FBA013042
:100E90000E900E980378202BF9D003F031F9FFF76C
:100EA00049F9FFF733BAAA4803F0DAF8FFF742F935
:100EB000FFF72CBA01300E900E980378202BF9D052
:100EC00003F079F9FFF736F9FFF720BA0FA90EA85A
:100ED00000F07AFC00283FF419AA10A90EA800F02F
:100EE00073FC00283FF412AA0E980378202B09D037
:100EF0009DF840209DF83C1003F06CFAFFF71AF9BA
:100F0000FFF704BA01300E90EEE70FA90EA800F02B
:100F10005BFC00283FF4FAA910A90EA800F054FCCD
:100F200000283FF4F3A911A90EA800F04DFC0028F9
:100F30003FF4ECA90F9B874EA3F2BC72109B0FA944
:100F40005B0103F4F07343EA4223119A0EA802F006
:100F50001F021343B38000F037FC00283FF4D6A9EA
:100F600010A90EA800F030FC00283FF4CFA911A969
:100F70000EA800F029FC00283FF4C8A9109B119A84
:100F80005B01C2F3440203F4FC6313430F9A31463E
:100F900043EAC2230E98F38003F045FAFFF7CAF83C
:100FA000FFF7B4B901300E900E980378202BF9D0DA
:100FB000202103F0ABFE00283FF4A8A9002300F88D
:100FC000013B064633780130202BFAD00E99624857
:100FD00000F036FB01220E995D4802F06DFB814660
:100FE0000A2000F01FFAB9F1000F04D04846FFF7BD
:100FF000A1F8FFF78BB93146584800F021FB0A22CF
:101000003146574802F058FB81460A2000F00AFAA0
:10101000B9F1000F07D04846FFF78CF84C4802F0B2
:10102000D6FDFFF773B94F4E4F48DFF824A100F00B
:1010300007FBC6F80090CDF83C90DFF83C910AF52C
:101040000A7B12AB2A464946504602F013FC70B99F
:10105000129A62B113AB4946584602F0B1FC0F9B9D
:10106000139A13440F9310B9129B9A42E9D20F9925
:1010700032683E48B1FBF2F200F0E2FA344802F086
:10108000A6FD374802F0A3FDFFF740B901300E90EE
:101090000E980378202BF9D002F0B8FDFFF74AF83C
:1010A000FFF734B94FF48071204602F0DDFD18B12E
:1010B000FFF740F8FFF72AB921462D4800F0C0FAA3
:1010C000FFF724B901300E900E980378202BF9D049
:1010D00003F020FAFFF72EF8FFF718B910A90EA8B1
:1010E00000F072FB00283FF411A911A90EA800F02E
:1010F0006BFB00283FF40AA91E4800F0A1FA4FF448
:101100008071204600F022FB2378592B7FF4FEA843
:101110004FF480539DF840100093119A164B1748D6
:1011200003F07CFAFFF706F8FFF7F0B80FA90EA856
:1011300000F04AFB28B10F9B5A1EB2F5805F38BF02
:101140001D4629460E4800F07BFAFFF7DFB800BFC6
:10115000040500206C040020115900081E590008E5
:101160002C070020540900202C5900083C59000885
:101170007A580008605900085C090020E857000808
:10118000935900080FA90EA800F01EFB58B30F9B3F
:101190000FA90EA8ADF8603000F016FB0F9B0FA949
:1011A0000EA88DF8623000F00FFB0F9B0FA90EA860
:1011B0008DF8633000F008FB0F9B0FA90EA88DF887
:1011C000643000F001FB0F9B0FA90EA88DF865306D
:1011D00000F0FAFA00283FF499A80F9B18A88DF8A0
:1011E000663000F06DFC18A800F0F8FB9DF8660072
:1011F0009DF8676003909DF865009DF8633002904C
:101200009DF864009DF8622001900548BDF86010CB
:1012100000EB86000090034800F012FAFFF776B862
:101220008C5500089C590008FEE7FEE7FEE7124ACD
:10123000124B13491A60134A134B1A60134A116078
:1012400011688901FCD51A68114942F002021A603E
:10125000104A114B8B4207D30021104B104A934286
:1012600007D3FEF7FDFFFEE752F8040F43F8040B27
:10127000F0E743F8041BF2E70000000808ED00E087
:1012800083000001700010000410024000100240B2
:1012900004000020A05E00080000002004000020E0
:1012A000981A00201A4B10B5188880B2820613D500
:1012B000184A9988538989B29BB27F2B0CD8013385
:1012C0009BB253811389C9B29BB2D418013303F086
:1012D0007F0384F88C101381030610D50D4A938880
:1012E0009BB26BB1013B9BB2938013880A489BB2BF
:1012F000D118097B0133018003F07F03138010BDF7
:10130000064A138823F080031B041B0CF6E700BF7A
:101310000038014006000020043801400C3801402C
:10132000014B5889704700BF060000200A4A5389C4
:101330009BB2002BFBD0D3889BB2D11891F88C00C4
:10134000013303F07F03C0B2D38072B65389013BEF
:101350009BB2538162B67047060000200B4A938807
:101360007F2BFCD853889BB2D118013303F07F0345
:101370000873538072B6938801339BB29380044AFA
:10138000138843F08003138062B670470600002084
:101390000C38014020211B4B1B4A10B51960136803
:1013A0001A4C43F004031360236823F0F00343F066
:1013B000B0032360236823F4706343F480632360E5
:1013C000136843F480431360114B1A6842F480425F
:1013D0001A601A6822F480421A600E4B42F22C0204
:1013E000B3FBF0F00C4B80B218809A8000220B4BBC
:1013F0001A805A809A80DA801A815A81084B1960C3
:1014000010BD00BF84E100E0181002400408014054
:101410000C10024000366E01083801400600002022
:1014200004E100E00A2810B5044602D10D20FFF7C0
:10143000F9FF074A13681BB1591C11601C7010BDDD
:10144000044B1B68002BFAD02046BDE8104018471B
:1014500014010020941A002010B5441E14F8010F46
:1014600000B910BDFFF7DEFFF8E72DE9FF470246A0
:101470000C461078002800F0D080252804D0561C97
:10148000FFF7D0FFA04658E05378302B27D1D61C69
:101490009378012200270A20A3F13001092927D9D6
:1014A00003F0DF014C2902BF337842F00402013619
:1014B000002B00F0B280602B92BF1846A3F12000F1
:1014C000C0B24F2800F09D8019D8432800F08D80CD
:1014D000442835D0422800F091801846D0E72D2BC3
:1014E00013BF961CD61C9378002208BF0222D1E7B6
:1014F00000FB0733A3F1300716F8013BCCE7552872
:101500001ED0582877D05328E7D1256804F1040865
:101510002B465C1B13F8011B0029FAD102F0020ACA
:1015200004F10109BAF1000F02D1BC4253D34C4679
:101530002846FFF791FFBC4252D34446324698E713
:101540004FF00A0C442804F10408216804D1002952
:10155000BCBF494242F00802782B0CBF4FF0270E67
:101560004FF0070E0020B1FBFCF40CFB1415EBB29E
:10157000092D84BF7344DBB230332146451C0DF87E
:10158000003014B1102D3FD10F20130705D504AB47
:101590001D442D2305F8103C851C12F0010F0CBFD3
:1015A0004FF0200A4FF0300A2B4602F0020403F1FC
:1015B000010984BBBB4229D3013D1DF80500FFF79B
:1015C00031FF002DF8D14F45B7D92020FFF72AFF72
:1015D00009F10109F7E72020FFF724FF4C469FE7B8
:1015E0002020FFF71FFF0134A5E7207804F104084D
:1015F000FFF718FFA1E74FF0100CA3E74FF0020C24
:10160000A0E74FF0080C9DE72846ACE75046FFF7EF
:1016100009FF4B46CBE79946CEE704B0BDE8F0871B
:1016200070B5064C4D1E2668206015F8010F08B9EC
:10163000266070BDFFF7F6FEF7E700BF941A0020A2
:101640000FB407B504A951F8040B0191FFF70DFF82
:1016500003B05DF804EB04B070470EB417B505A9EC
:1016600051F8043B074C019120601846FFF7FDFE3E
:10167000002322682360137003B0BDE8104003B05C
:10168000704700BF140100200EB433B505A951F80E
:10169000043B064C0191256820601846FFF7E5FEE3
:1016A000256002B0BDE8304003B07047941A0020B6
:1016B000F8B51E46044621481546FFF7C1FF022E25
:1016C00030D0042E08D11E4E54F8041B3046FFF7CC
:1016D000B7FF013DF8D10DE0012E0BD12646194F81
:1016E000331B9D420EDC2020FFF79CFE2646331B59
:1016F0009D420DDC0D20FFF795FEBDE8F8400A2065
:10170000FFF790BE16F8011B3846FFF799FFE7E791
:1017100016F8010BA0F120035E2B88BF2E20FFF7E7
:1017200081FEE4E7084E04EB450534F8021B304621
:10173000FFF786FFAC42F8D1DCE700BFD0590008C4
:10174000E3590008D7590008DD5900082DE9F04198
:10175000154E0746326812B90020BDE8F08100241A
:101760004D1E336898470028F6D00D2812D008285F
:1017700005D1002CF5D0013CFFF754FEF1E71F28FE
:10178000EFDDAC42EDDA385504F10108FFF74AFE0F
:101790004446E6E700233B55FFF744FE0A20FFF7E7
:1017A00041FE0120D9E700BF901A002038B50B4652
:1017B000044C1146256820601846FFF7C7FF2560D6
:1017C00038BD00BF901A0020002370B50B6002687E
:1017D0001378202B1DD02D2B01BF531C0360537891
:1017E000012618BF0026302B23D10268531C03604A
:1017F0005378622B10D0782B13D11025931C0360E3
:1018000093780024202B1CD806B164420C60012080
:101810000EE001320260DAE7931C03609378022540
:10182000EFE7202BF3D9A3F13002092A07D90020D2
:1018300070BDA3F13002092AF9D80A25E1E708258D
:10184000DFE7602B84BF203BDBB2A3F13002D2B2D2
:10185000102A03D9373BDAB2092AE8D9AA42E6D2DC
:10186000036804FB05245A1C02605B78CAE700BFCA
:10187000244B70B51A6842F000621A601A6842F090
:1018800080521A60204A136843F48073136048F250
:10189000011302F5D032203213601C4B11688E0701
:1018A0000FD51B491B4B0C460888850610D5102008
:1018B00047F6FF7608800020174D2880AE8008800C
:1018C0000BE0013BEAD1002314490B7013600DE0DB
:1018D000013BE9D1F7E7013BF5D021888806FAD52D
:1018E000218809070AD501220C4B1A70064A136891
:1018F00023F480731360094B187870BD013BEFD15E
:10190000E1E700BF1C1002400070004000127A00A6
:1019100004280040A086010008280040180100208B
:1019200030B5194B1B782BB3184A136843F48073F6
:101930001360A2F58F427C3A1546154B1188890633
:1019400010D510211180134984B2000C0C8021F8AD
:10195000040C47F6FF7021F8100C00210E4801809E
:1019600011800DE0013BE9D1002308490A6822F407
:1019700080720A60181C18BF012030BD013BF3D0F3
:101980002A889206FAD5F0E718010020007000407E
:10199000A08601001C2800400828004030B50C4BF0
:1019A0001B7893B10B490C4A0C88138843EA044313
:1019B0000C46114625880A8842EA05429A4202D11D
:1019C0000360012030BD1346F4E71846FAE700BF74
:1019D00018010020182800401C28004073B5044658
:1019E00001A8FFF7DBFF00285AD03C22019B00250D
:1019F00003F5FD431033B3FBF2F002FB1031A1718C
:101A0000B0FBF2F102FB110262714FF46162182027
:101A1000B3FBF2F2B2FBF0F100FB11222549227177
:101A2000B3FBF1F10722081DB0FBF2F2C2EBC202D8
:101A3000821A40F2B550E2711F4A204EB3FBF2F316
:101A4000B1FBF0F200FB1212B2F5896F36BF40F223
:101A50006D110321B2FBF1F19B0003F2B2739BB253
:101A60000B44238040F26D1303FB1123032908BFAD
:101A7000013B2A460193012A905D07D1022900D13A
:101A80000130834204D31B1A022210E0834209D2A0
:101A900005B101930120019B01320133A270E37073
:101AA00002B070BD01320C2AA3EB0003F1D0012576
:101AB000E1E700BF80510100801F8607EA59000856
:101AC00040F63A020388F0B4A3F2B273934237D8D7
:101AD0008678AEB3C2789AB340F26D1140F2B55435
:101AE00003F0030569439B0804FB03130024032D43
:101AF00008BF0133144F611CB1420CD217F804C067
:101B0000012C634405D1022D00D1013302210C4682
:101B1000F1E70C29FBD13C214479013A61434FF4B0
:101B2000616413440279807904FB0212F0BC024420
:101B3000A2F5FD420548103A00FB0320FFF7F0BE76
:101B40000020F0BC704700BFEA5900088051010036
:101B5000054B064918800A8802F08302032AFAD14D
:101B60001888C0B2704700BF0C30014008300140F7
:101B700010B5074C2060FF20FFF7EAFFFF2802D0D6
:101B80002368002BF7D1A0F1FF035842584110BD44
:101B90001C0100201022024BFF201A60D8E700BF72
:101BA000100801404FF48012084B10B5FF201A6056
:101BB000FFF7CEFF4FF4FA70FFF7DAFF044618B9CB
:101BC000FFF7E8FF204610BD0124FBE710080140A5
:101BD000020638B504460D4607D500213720FFF729
:101BE000F7FF01282BD804F07F040C2C28D144F0F7
:101BF0004000FFF7ADFF280EFFF7AAFFC5F307402F
:101C0000FFF7A6FFC5F30720FFF7A2FFE8B2FFF733
:101C10009FFFECB1082C14BF01208720FFF798FF2D
:101C20000C2C02D1FF20FFF793FF0A24FF20FFF7BF
:101C30008FFF030603D5013C14F0FF04F6D138BD35
:101C4000FFF7A8FFFFF7AEFF0028D0D1FF20F6E78F
:101C50009520E3E7C822F8B504460D46284E726089
:101C6000FF20FFF775FFFF2803D170680028F7D128
:101C7000F8BDFE2841D1234A234F13883E4623F066
:101C800040031B041B0C13801388A91E43F4046338
:101C900013804FF6FF7210461C4B1A803A8802F0F0
:101CA0008302032AFAD125461A88023992B2188093
:101CB00062704FEA122205F8022B1CD1328802F022
:101CC0008302032AFAD11B880E4A9BB2E3701B0AD7
:101CD000A3701388FF2023F404631B041B0C1380E0
:101CE000138843F040031380FFF732FFFF20FFF714
:101CF0002FFF0120BCE72C46D0E70020B8E700BF4B
:101D00001C01002000300140083001400C3001402F
:101D100070B5234D234A2E46138823F040031B043D
:101D20001B0C1380138843F40463138003784278F8
:101D300042EA03221C4B1A80021D00F2022012F814
:101D4000024C12F8011C41EA04212C8804F083049F
:101D5000032CFAD1023290421C881980EFD13288CC
:101D600002F08302032AFAD10E4A1B881388FF204F
:101D700023F404631B041B0C1380138843F04003FB
:101D80001380FFF7E5FEFF20FFF7E2FEFF20FFF7DD
:101D9000DFFE00F01F00431F5842584170BD00BFD6
:101DA00008300140003001400C300140F7B50028F8
:101DB00040F0CE80674B68491A6800F1804042F4D9
:101DC00080521A601A6800F5883042F004021A60E6
:101DD0001A68624D42F010021A60A3F58433183B72
:101DE0001A6822F4702242F440321A601A6822F40F
:101DF000700242F430021A6040220A601A6822F02F
:101E0000706242F000621A601A6822F0704242F07A
:101E100030421A601022C3F81028036823F470239C
:101E200043F4002303604FF451704D4B18800A2394
:101E30000A606B606B68002BFCD14A4B1A781E4617
:101E400012F0020F03D01878C0B203B0F0BD0A241C
:101E5000434A13889BB223F0380343F028031380CE
:101E6000FF20013CFFF774FE14F0FF04F8D1214677
:101E70002046FFF7ADFE0128074665D14FF47A737F
:101E80004FF4D57108206B60FFF7A2FE012841D105
:101E900001AFFF20FFF75CFE38550134042CF8D168
:101EA0009DF80630012B4FD19DF80730AA2B4BD15E
:101EB0006B6833B14FF08041A920FFF789FE0028FD
:101EC000F6D16B68002B3FD000213A20FFF780FE4F
:101ED000002839D10446FF20FFF73AFE3855013477
:101EE000042CF8D19DF8043013F0400F14BF0C24DB
:101EF00004242C72FFF74EFE44B3194A138823F0D2
:101F000038031B041B0C1380337803F0FE0333707B
:101F1000307899E72146A920FFF75AFE022836BFFC
:101F200002240124A9276B682BB100213846FFF752
:101F30004FFE0028F7D16B6833B14FF400711020C9
:101F4000FFF746FE0028D4D00024D2E70123DEE7C5
:101F500001207AE718100240100801401C010020FF
:101F6000003001400000002018B9034B1878C0B2BF
:101F700070470120704700BF0000002038B50D46B3
:101F80001C46114688BB83B31A4B1B78DA072ED444
:101F9000194B1B7A1B0758BF4902012C11D1112084
:101FA000FFF716FE38B94FF400712846FFF752FECE
:101FB000B0FA80F46409FFF7EDFD201C18BF012082
:101FC00038BD1220FFF704FE0028F4D14FF4007151
:101FD0002846FFF73FFE18B1013C05F50075F5D125
:101FE00000210C20FFF7F4FDE5E70420E8E70320DB
:101FF000E6E700BF000000201C01002070B50D4680
:1020000016461C46002852D1002B50D02B4B1A7874
:10201000D0074ED41B7859074DD4294B1B7A1A0789
:1020200058BF7602012C1BD131461820FFF7D0FD96
:1020300030B10124FFF7AEFD201C18BF012070BD98
:102040004FF4FA70FFF794FD0028F2D0FE20FFF75E
:102050007FFD2846FFF75CFEB0FA80F46409E9E7EB
:1020600013F0060F03D021469720FFF7B1FD31464C
:102070001920FFF7ADFD0028DCD14FF4FA70FFF70F
:1020800077FD50B1FC20FFF763FD2846FFF740FEC7
:1020900018B1013C05F50075EFD14FF4FA70FFF768
:1020A00067FD0028C5D0FD20FFF752FDC2E70420E0
:1020B000C5E70320C3E70220C1E700BF00000020FE
:1020C0001C010020F0B5164685B0002840F0DB80EA
:1020D0006F4B1B78D80700F1D880042900F2D1801B
:1020E000DFE801F00309CF4A9700FFF75BFDB0FA84
:1020F00080F4640906E000210920FFF769FD044629
:1021000028B10124FFF746FD204605B0F0BD10219F
:102110006846FFF79FFD0028F3D09DF800309DF83A
:1021200008109B09012B9DF809009DF8073009D183
:102130001A0402F47C1200EB012101320A449202DB
:102140003260DFE79DF806209B00920203EB9113BB
:1021500002F4406213449DF805209DF80A1002F035
:102160000F0202EBD112410001F006010A440133D3
:10217000073A93403360C5E7464B1C7A14F00401DC
:102180001BD000218D20FFF723FD0028B9D1FF20AF
:10219000FFF7DEFC10216846FFF75CFD0028B0D099
:1021A0003024FF20013CFFF7D3FC14F0FF04F8D1EA
:1021B0009DF80A301A091023DBE70920FFF708FD14
:1021C000074600289DD110216846FFF743FD0028EF
:1021D00097D014F002049DF80A309DF80B100DD032
:1021E0005B009DF80D2003F07E0303EBD1139209F1
:1021F0000133013A934033603C4683E7CA0002F062
:102200001802C3F3840302EB5112013302FB0333C0
:10221000B0E7204B1D7A15F0060F3FF472AF6A4607
:1022200033210020FFF74EFF00287FF46AAF9DF8AE
:1022300000309B0904D19DF80A305A067FF561AF42
:10224000D6E900142B0758BF49024FF0200058BFB1
:102250006402FFF7BDFC00287FF453AF2146212024
:10226000FFF7B6FC014600287FF44BAF2620FFF7AE
:10227000AFFC00287FF445AF47F23050FFF778FC01
:1022800035E704243EE704243EE703243CE700BF8F
:10229000000000201C0100200D4A53689BB213B1BE
:1022A000013B9BB2536013689BB213B1013B9BB2DD
:1022B0001360084A084913780968DBB2C9064ABFA7
:1022C00003F0FB0303F0F90343F0030313707047BB
:1022D0001C010020000000200810014042884378C3
:1022E000007843EA022340EA032070470B0A01709A
:1022F00043700B0C090E8370C1707047024400F8E4
:10230000011B9042FBD1704710B5024410F8013B0D
:1023100011F8014B9042A3EB040301D0002BF5D040
:10232000184610BDC3690239023B8B4283BF438903
:10233000006B01FB030000207047024600F10B0117
:102340000020C30143EA500312F8010B03448A4200
:1023500003F0FF00F5D17047036810B55BB11A4672
:1023600012F8011B1F2911D93A29F9D11978A1F1C5
:102370003004092C02D94FF0FF3006E002339A42B4
:10238000F9D13029F7D10260002010BD014B187837
:10239000FBE700BF2801002038B50D46044618B9F8
:1023A000092000232B6038BD0368002BF8D01A7871
:1023B000002AF5D08188DA889142F1D15878FFF768
:1023C000D3FD10F00100EBD12368EBE738B50368CB
:1023D000044618785D1C20B140F2B51102F0F2FB02
:1023E00008B1256038BD4FF0FF30FBE701380A44E3
:1023F00011F8013B914200F8013FF9D17047CA7EC4
:102400008B7E032843EA022301BF487D0A7D42EA0E
:10241000002243EA024318467047C2F307238A7634
:10242000CB760378032B01BF120C0A75120A4A758A
:10243000704770B5C37804460BB9002070BD00F139
:102440003806426B012331464078FFF7D7FD80B94B
:10245000616BA36A226ACB1A9342E070EDD2A37833
:10246000022BEAD10A44012331466078FFF7C6FD0A
:10247000E3E70120E2E7436B70B58B4206460D4669
:1024800012D0FFF7D6FF044660B92A46012306F1B1
:1024900038017078FFF772FD00281CBF4FF0FF3540
:1024A00001247563204670BD0024FBE7002310B5AE
:1024B000C3704FF0FF3343630446FFF7DCFF18BBE4
:1024C00094F8372294F8363243EA02234AF655222A
:1024D00093421BD194F83830EB2B03D01833DBB286
:1024E000012B15D803220B4904F16E00FFF70CFFF6
:1024F00048B10522084904F18A00FFF705FF0028CA
:1025000014BF0220002010BD0420FCE70320FAE7DE
:102510000220F8E7CC590008C45900082DE9FF470C
:1025200000230B6088461646FFF716FF071EC0F211
:10253000C8809E4D05EB87035C68002C00F0C380CB
:10254000C8F80040237806F0FE0673B16078FFF704
:102550000BFDC10709D4002E00F0B78010F0040075
:1025600000D00A2004B0BDE8F0870023F8B2237041
:102570006070FFF71BFCC20700F1A9800EB1430792
:10258000EFD400212046FFF791FF02287ED10021E1
:1025900004F5FF7616F8040C10B13046FFF79EFEE6
:1025A0004DF821000131042906F11006F2D1002670
:1025B0005DF82670002F61D039462046FFF776FF80
:1025C00001285CD894F8442094F8433043EA02236D
:1025D000B3F5007F5ED194F84F3094F84E6056EA20
:1025E000032604D104F15C00FFF778FE064694F858
:1025F00048A026620AF1FF33012B84F802A049D8D3
:1026000094F845801FFA88F36381002B42D008F1CB
:10261000FF3313EA080F3DD194F84A3094F84990FB
:1026200049EA032919F00F0FA4F8089032D194F861
:102630004C1094F84B0050EA012003D104F15800EB
:10264000FFF74CFE94F8472094F8463053EA0223F3
:1026500020D006FB0AFC03EB19126244904219D306
:10266000811AB1FBF8F1A9B15148814212D84FF655
:10267000F57081422DD94FF0030832E00320013676
:10268000042E95D1042805D101206BE70428FBD046
:10269000012801D90D2065E7002793E7B9F1000F64
:1026A000F8D0B8F1020F4FEA410018BF4018634458
:1026B00018BF01F00101E3620CBF014601EB5001BC
:1026C00029E00B204EE70C204CE730464AE7032078
:1026D00048E740F6F578414594BF4FF001084FF0C8
:1026E000020802313B443A44B8F1030FE1616762EA
:1026F000A3622263D2D194F8632094F8623053EA43
:102700000223C7D1B9F1000FC4D104F16400FFF76F
:10271000E5FDE062890001F2FF11B6EB512FB9D35C
:102720004FF0FF33C4E904338023B8F1030F237162
:102730002FD194F8692094F8683043EA0223012BE2
:1027400027D1791C2046FFF796FE10BB94F837225C
:1027500094F83632207143EA02234AF65522934216
:1027600017D104F13800FFF7B9FD124B984210D190
:1027700004F50770FFF7B2FD0F4B984209D104F53D
:102780000870FFF7ABFD606104F50970FFF7A6FD67
:10279000206100202B8984F8008001339BB22B81BB
:1027A000E380064BA061E360DCE600BF2801002067
:1027B000F5FFFF0F525261417272416132010020F8
:1027C00001292DE9F04705460C46174672D9C36921
:1027D0008B426FD90378022B3FD0032B50D0012BB3
:1027E00068D101EB5108816A01EB5821FFF743FEE4
:1027F000064638BB14F0010405F1380908F1010A56
:10280000C8F3080817BF19F80830FBB203F00F022D
:102810003B011CBF03F0F003134309F80830012308
:10282000A96AEB7001EB5A212846FFF724FE064601
:1028300040B9CAF3080A44B1C7F3071709F80A7088
:102840000123EB703046BDE8F08719F80A30C7F372
:10285000032723F00F031F43F0E7816A01EB1421E4
:10286000FFF709FE06460028ECD1640005F13803A5
:1028700004F4FF741F551A19C7F307275770DFE7D1
:10288000816A01EBD411FFF7F6FD06460028D9D185
:10289000A40005F1380304F4FE741C442046FFF73D
:1028A0001DFD27F0704700F0704139432046FFF7C7
:1028B0001DFDC5E70226C5E70129F8B505460C460A
:1028C00052D9C36999424FD20378022B29D0032BE6
:1028D00038D0012B48D101EB5106816A01EB56211A
:1028E000FFF7C9FD10B14FF0FF30F8BDA96A771CA2
:1028F000C6F308062E4401EB5721284696F83860A7
:10290000FFF7B9FD0028EED1C7F308073D4495F85D
:102910003800E30746EA00204CBF0009C0F30B0073
:10292000E3E7816A01EB1421FFF7A5FD0028DAD166
:102930006400383504F4FF742B195B78285D40EA95
:102940000320D2E7816A01EBD411FFF794FD002840
:10295000C9D1A40005F1380004F4FE742044FFF747
:10296000BDFC20F07040C0E70120BEE7B1F5001FBC
:10297000F8B506460D4601D30220F8BDCA06FBD1C4
:10298000826804683161C2B92378022B01D9E36AF5
:10299000A3B92389B3EB551FEED9E36AB361B369D9
:1029A0007261002BE8D003EB55233834C5F30805DA
:1029B0002C44B361F4610020DFE713461A466789AF
:1029C0007F02BD42114604D22046FFF7ABFCB06146
:1029D000E5E73068FFF770FF431C024606D0012888
:1029E000CAD9E3698342C7D9ED1BEAE70120C4E7EE
:1029F0002DE9F041804605680F4649B92E69CEB1F0
:102A0000EB69B34298BF01266B69ABB9002409E0BA
:102A10002846FFF751FF0128044658D9421C04D12B
:102A20004FF0FF342046BDE8F081EB698342F9D8CE
:102A30003E46E9E70126E7E7BE4215D1EB69741C83
:102A40009C4228BF0224D8F800002146FFF734FF3B
:102A500001283CD0431CE3D0D8B12B69012B03D90A
:102A6000EA69934238BF1E463446EB690134A342FB
:102A700002D8012ECAD902242146D8F80000FFF757
:102A80001BFF40B1012822D00130C9D0B442ECD1A3
:102A9000BCE7002CE8D04FF0FF3221462846FFF774
:102AA0008FFE90B957B9EA696B69023A93422C617B
:102AB0000FD92B7943F001032B71B3E72246394636
:102AC0002846FFF77DFE0028EDD00128A8D001247C
:102AD000A8E7013B6B61ECE7F8B50D46012D074611
:102AE00011462CD90468E369AB4228D92AB14FF0CA
:102AF000FF322046FFF764FE30B929463868FFF7F9
:102B0000DBFE064608B90020F8BD012817D0431C9B
:102B100017D0002229462046FFF752FE0028F3D1A5
:102B2000E2696369911E8B4205D2013363612379A7
:102B300043F001032371B2423546DED8E3E70220B9
:102B4000E2E70120E0E7F8B505460E46FFF771FC25
:102B50000446F8B931462846FFF7E4FB05F138068C
:102B6000074668634FF4007221463046FFF7C6FB04
:102B70006B899C4204D36889001B18BF0120F8BDF3
:102B800001233A1931466878FFF738FA0028F2D164
:102B90000134EDE70120F2E72DE9F84383690446AB
:102BA0008946A3B107692037B7F5001F0FD2C7F3D5
:102BB00008080568B8F1000F39D141690133836114
:102BC00039B92B89B3EB571F31D80023A3610420F7
:102BD0000BE06B89013B13EA572328D12846FFF706
:102BE0006BFE0128064602D80220BDE8F883421C8D
:102BF00001D10120F9E7EB69834212D8B9F1000F46
:102C0000E3D061692046FFF7F3FE0646A8B101282C
:102C1000EAD0431CEDD001462846FFF794FF002878
:102C2000E7D1666131462846FFF77CFBA061383565
:102C300045442761E5610020D7E70720D5E7F8B5CF
:102C40000F46002104460668FFF790FEA8B9054626
:102C5000A1693046FFF70FFC78B9E3691B78E52BD3
:102C600000D01BB90135BD4201D1F8BD0546012197
:102C70002046FFF791FF0028EAD0042808BF07206C
:102C8000F3E72DE9F84FFF2582460F462C464FF01B
:102C9000040B4FF6FF790668DFF80C81DAF818109C
:102CA00019B9BBF1000F72D061E03046FFF7E3FBCA
:102CB000834600285BD1DAF81C000278002A70D025
:102CC000C37AE52A03F03F038AF8063055D02E2A4E
:102CD00053D023F02001A1F1080CDCF1000141EBFD
:102CE0000C01B94249D10F2B4CD1510643D5DAF82A
:102CF0001030457B02F0BF02CAF82C30437BAB4258
:102D00003BD1C17E837E43EA01231BB2ABBB0D24C2
:102D10004FF0010E0178D6F80CC021F040010139C6
:102D2000614313F8084000EB040B9BF801B0045D0D
:102D300044EA0B24BEF1000F21D07F291DD8A646FE
:102D40002CF81140013101330D2BEAD103785B06D9
:102D500004D57F2911D800232CF81130541EE4B279
:102D600000215046FFF718FF8346002896D0002325
:102D7000CAF818300DE09442C0D0FF24F0E74C456B
:102D8000E1D0FAE744B9FFF7D8FAA84204D14FF0EE
:102D9000000B5846BDE8F88F4FF0FF33CAF82C30CF
:102DA000F7E74FF0040BE2E7F6590008C16A2DE996
:102DB000F0414B1C04460568066918D1E5274FF021
:102DC0000108A1692846FFF756FB60B9E3691F7047
:102DD00085F803802369B3420DD201462046FFF7F0
:102DE000DBFE0028EDD0042808BF022003E0FFF737
:102DF000BDFD0028E2D0BDE8F0812DE9F04F0021B3
:102E000085B00446D0F800A0FFF7B0FD804600284A
:102E100040F093804FF0FF094FF0FF334E46E362DE
:102E2000A1695046FFF727FB8046002840F08580C7
:102E3000E5692F78002F00F08480EA7AE52F02F010
:102E40003F03A37103D0120705D50F2B05D04FF018
:102E5000FF33E36258E00F2B5DD194F82B30580616
:102E600048D479064ED5236995F80D9007F0BF0731
:102E7000E3626B7B4B4547D1EB7EAE7E46EA032691
:102E800036B2002E40D195F80080012108F03F08AD
:102E900008F1FF334FF00D0808FB03F8DAF80CB027
:102EA000294BF25CAB185878AB5C43EA002369B35A
:102EB000B8F17F0F28D81846039301F097FE08F168
:102EC000010202903BF81800019201F08FFE029976
:102ED000814219D1039B019A1946904601360D2E65
:102EE000DED12B785A0603D511B13BF818305BB907
:102EF000013FFEB200212046FFF74EFE804600282B
:102F00008ED01AE0BE42B4D0FF26F3E74FF6FF7230
:102F10009342E3D0F8E726B92846FFF70EFA484572
:102F20000BD094F82B30DB0791D40B2204F1200155
:102F30002846FFF7E9F9002889D1404605B0BDE8E9
:102F4000F08F4FF00408F8E7F65900082DE9F04F2C
:102F500090F82B4089B014F0A004054676D107689C
:102F6000FA6832F81430002B5BD105F120060C22F0
:102F7000314605A8FFF73AFA9DF81F30DB076ED5FA
:102F800040234FF00109DFF8E88185F82B300B2250
:102F900005A93046D7F80CA0FFF728FAB9F1050FBC
:102FA00050D94B46AAF1020131F8022F002A3AD13A
:102FB000072203F00F0000F13001392988BF00F12A
:102FC0003701013A03A810441B094170F1D17E205A
:102FD00008A9114401F8140C9A4203D0F15C581C62
:102FE000202931D13344072A8FBF202108A989180D
:102FF00011F8141C98BF013203F8011B991B072913
:10300000F1D92846FFF7F9FE824610BB09F1010904
:10301000B9F1640FBBD14FF0070A504609B0BDE8C3
:10302000F08F01349DE7102002F0010C0CEB4303FC
:1030300013F4803F18BF83EA080301384FEA5202B5
:10304000F2D1B1E74B46B3E70346C5E74FF0060AB6
:10305000E3E70428E1D19DF81F3085F82B309DF877
:103060001F3028469B0743BF0D230C34B4FBF3F4F9
:10307000012448BF01342146FFF7E1FD82460028C4
:10308000CBD1013C56D029692846A1EB4411FFF76A
:103090006DFC82460028C0D13046FFF74EF94FF64E
:1030A000FF798046A9693846FFF7E5F9824600288E
:1030B000B3D10F224FF00D0CEB69E1B2D7F80CE061
:1030C000DA724A1E0CFB02F2844683F80D801873F4
:1030D0009876D876019248451FBF019A3EF81200B3
:1030E00001320192214A1CF802A00CF1010C03F8F4
:1030F0000A0003EB0A0B4FEA102A002808BF4846D3
:10310000BCF10D0F8BF801A0E5D1484503D0019A21
:103110003EF812200AB941F0400119700123002144
:10312000FB702846FFF738FD824600287FF475AF14
:10313000013CB7D1A9693846FFF79DF982460028BE
:103140007FF46BAF01462022E869FFF7D7F80B2226
:103150003146E869FFF74AF995F82B30EA6903F040
:10316000180313730123FB7057E700BFF6590008DB
:10317000211001002DE9F0470026D0F800908E754F
:10318000836907460C46002B00F09480C36A013324
:103190006ED100222E261146F869451E15F8013F12
:1031A0000131202B10D0052B08BFE523092906D1BA
:1031B0000B2A9EBF04EB020C8CF80960013204EB71
:1031C000020C8CF8093001320B29E7D10021A31839
:1031D0005972A37D002B5BD1002A50D004F1090164
:1031E00011F8012B002A4DD092B2A2F14105192D00
:1031F00007D8092B34BF08251025067B2E4218BF9F
:1032000020320A730133EBE7B8F1000F05D100F566
:1032100020539BB2B3F5006F13D340F2B51140EACF
:10322000084001F0AFFCFF28C5F1800A18D9BAF1B7
:10323000010F20D96319020A9A75D875022300205C
:103240001D4480460236D9F80C30985B0028DBD14B
:10325000B8F1000F18BF002500232544AB7598E78F
:1032600048B1BAF1000F08D0631998750123E6E759
:10327000B0463546E7E70025EAE75546E8E73F234D
:10328000A3750123002223449A75037B03B963725B
:10329000F969CB7A01F11C002372FFF71FF8206057
:1032A000CA7D8B7D43EA0223E3804A7E0B7E43EA9C
:1032B0000223A380BDE8F087F8B50446FFF7B9F80C
:1032C0000546002842D12378032B37D12779012FD7
:1032D00034D104F1380601464FF400723046FFF74E
:1032E0000DF8552384F83632AA2384F83732522356
:1032F0004122722184F8383084F83930612384F80F
:103300003B2084F83A3084F81E2284F81F3284F877
:103310001C1284F81D1204F508706169FEF7E6FFBF
:10332000216904F50970FEF7E1FF626A3B4601324C
:10333000626331466078FEF761FE25710022607895
:103340001146FEF7BFFE003018BF0120F8BD2DE981
:10335000F04F036887B001930B7806462F2B894600
:1033600001D05C2B0AD14A46137891462F2B02F1EB
:103370000102F9D05C2BF7D0002301E0019B9B698F
:10338000B36099F800301F2B00F22B8180230021BD
:1033900086F82B303046FFF7E9FA07B0BDE8F08F2A
:1033A0007F2D00F247812AF8153001351FE109F120
:1033B00001020592DDF8149099F800202F2AF6D02A
:1033C0005C2AF4D01F2B8CBF00240424012D2CD1A7
:1033D000BAF800302E2B2ED1002306F120022AF855
:1033E00015309D4294BF20212E2101330B2B02F872
:1033F000011BF6D144F0200486F82B403046FFF73D
:10340000FCFC96F82B30002800F0D9800428C4D1A9
:10341000990603F0040240F1CE80002A00F0E1801A
:103420008023002086F82B30B7E7022D03D1BAF8AD
:1034300002302E2BCCD00AEB45038DBB00230AEBC8
:1034400045022AF81530002D00F0F4803AF81310E8
:10345000581C20292CD00BB92E2902D144F003048A
:10346000E4B232F8021D2E2901D0013DF9D120210C
:103470004FF000080B227018FEF740FF4FF0080BCA
:1034800047463AF813005A1C20B3202803D02E28B0
:1034900010D1AA4212D044F00304E4B21346F0E77C
:1034A00033F8022D202A01D02E2AC7D1013DC4E7CE
:1034B0000346CBE7D84505D2AA423ED1BBF10B0F5C
:1034C00033D102E0BBF10B0F29D14FF00B0B44F0CD
:1034D0000304E4B296F82030E52B04BF052386F8F8
:1034E0002030BBF1080F04BFBF00FFB207F00C0390
:1034F0000C2B03D007F00303032B02D144F002048A
:10350000E4B2A3073FF578AFFD0744BF44F01004D1
:10351000E4B2780744BF44F00804E4B26CE7AA427E
:1035200003D044F00304E4B2D4D8BF00FFB22A466B
:103530004FF00B0B4FF00808B0E77F2839D944F063
:103540000203DBB240F2B5110392029301F01AFBC1
:10355000DDE9023210F0800F11D0414900F07F0008
:103560000844407B30B13F4C14F8011F002965D05E
:103570008142F9D143F00303DBB25F2011E0FF2861
:10358000F0D90BF1FF31884504D344F00304E4B2D1
:10359000D84683E706EB0801040A81F8204008F1C9
:1035A000010806EB080181F8200008F101081C461B
:1035B00074E72346D7E7002A08BF0520EDE65A073F
:1035C0003FF5EBAEB379DB0636D5019B03F138014D
:1035D0003369C3F308031944019B1878FEF70FFF02
:1035E000B06000253368CDF81490D3F80CA005A87E
:1035F000FEF7ECFE421C1DD0B0F5803F24BF030C4B
:103600002AF8153083B228BF01351F2B7FF6D2AEC2
:103610002F2B3FF4CFAE5C2B3FF4CCAE7F2B3FF68D
:10362000BFAE1846104911F8012F002A3FF4B8AE7A
:103630009042F8D10620B0E60520AEE6A0F14101A7
:1036400089B2192901D847F00207A0F1610189B2B6
:1036500019299EBF203847F0010780B2A1E700BFBB
:10366000F6590008BA5A0008B15A00081FB5CDE94A
:10367000001004A840F8041D1446FEF76DFE002853
:1036800014DB0C4B80001A1852680AB1002111702B
:10369000019A0AB10021117003445A6044B100221A
:1036A00001A96846FEF73AFF04B010BD0B20FBE706
:1036B0002046F9E7280100202DE9F04391B001915F
:1036C00017460446002800F0D38002F03F052A4642
:1036D00003A901A8FEF722FF064600284DD1039B4F
:1036E0000DF1400848F8303D01994046FFF72FFEA4
:1036F00020B99DF93B30002BB8BF062017F01C0FF6
:103700004BD0002840D0042837D14046FFF71EFC9C
:1037100098BB45F00805290749D5039BDDF82C9097
:1037200018784946FEF76BFE0746FCF777FD014621
:1037300009F10E00FEF7DAFD20220B9B0398DA72E6
:103740000B990022FEF769FE002201210B9B1A77DC
:103750005A779A77DA77039BD97047B33946404650
:10376000D3F83490FFF7B8F938B949460398FEF713
:1037700082FE039B013F1F61C8B100230646236000
:10378000304611B0BDE8F0839DF8163013F0110FEC
:103790006AD17807BFD50820EFE70028EDD19DF862
:1037A0001630DA065ED4BF0701D5D8075CD4039F74
:1037B000DDF82C807B6BC4F82480236238782907DD
:1037C000414648BF45F04005FEF719FEA06008F1EC
:1037D0001C00FEF783FD0021FB88276004F1280709
:1037E000E0604FF40072A38025746174E16161614F
:1037F0003846FEF783FDAA06C2D5E568002DBFD086
:10380000039BA168B3F80A8065614FEA4828A84580
:103810001AD30020A1610028AFD1C5F30803002B03
:10382000AED0DDF80C804046FEF77CFDF0B100EB39
:103830005522E2610123394698F80100FEF79EFB0C
:1038400000289DD0012098E72068FFF735F801286F
:103850000146A5EB080503D9431CD8D10120D9E7BF
:103860000220D7E7042088E7072086E7022084E7C4
:10387000092685E72DE9F04F9B46002385B0894650
:10388000CBF8003003A904461546FEF785FD064631
:10389000F8B9667CEEB9237CD90740F18F80E368E4
:1038A000676904F1280ADF1BAF4228BF2F4687B1A2
:1038B0006269C2F30803002B72D1039B5B89013B51
:1038C00013EA522315D142B9A06801280CD8022668
:1038D0006674304605B0BDE8F08FA169206800939A
:1038E000FEF7EAFF009BF0E7421C01D10126EFE75B
:1038F000A0610193039BA16918460093FEF712FD96
:103900000028E4D0019B7D0A03EB00082AD0009A2E
:10391000591952890098914288BFD51A2B464246C0
:1039200049464078FEF72AFB0028DFD194F9103091
:10393000002B0BDAE069A0EB0800A84206D24FF496
:103940000072514609EB4020FEF750FD6D02DBF896
:1039500000307F1B2B44CBF800306369A9441D4421
:103960006561A4E7E269424518D094F91030002B54
:103970000BDA0098012351464078FEF73FFB002800
:10398000B4D1237C03F07F032374039801234246C0
:1039900051464078FEF7F2FA0028A7D1C4F81C80FF
:1039A00061694846C1F30801C1F50075BD4228BFF1
:1039B0003D4651442A46FEF719FDC8E7072688E729
:1039C0002DE9F04F9B46002385B08946CBF80030A7
:1039D00003A904461746FEF7DFFC064628BB667CB3
:1039E0001EBB237C9A0740F1A880636904F1280A72
:1039F000FB4228BFDF43A7B16369C3F30802002A73
:103A000040F08980039A5289013A12EA53220192C6
:103A10001ED173B9A06870B901462046FEF7E8FFD1
:103A200048B9237C43F040032374304605B0BDE819
:103A3000F08FA169F1E7012802D102266674F4E74C
:103A4000431C01D10126F9E7A368A06103B9A06076
:103A500094F91030002B0CDA03980123E2695146E7
:103A60004078FEF7CBFA0028ECD1237C03F07F03EB
:103A70002374039BA16918460093FEF753FC0028AA
:103A8000DBD0019B7D0A03EB000832D0009B019A3A
:103A90005B892A449A4288BF019A009888BF9D1A80
:103AA0002B46424649464078FEF7A8FA0028C9D17D
:103AB000E169A1EB0801A9420AD24FF4007209EBB7
:103AC00041215046FEF792FC237C03F07F032374D0
:103AD0006D02DBF800307F1B2B44CBF800306369AC
:103AE000A9441D44E3686561AB422CBFE360E56017
:103AF00081E7E36943450CD0E26863699A4208D9DB
:103B000000980123424651464078FEF737FA0028D4
:103B100098D1C4F81C8060694946C0F30800C0F51C
:103B20000075BD4228BF3D4650442A46FEF75EFC64
:103B3000237C63F07F032374CBE7072675E7F7B593
:103B400001A90446FEF728FC054600283AD1237C4B
:103B50005A0637D51B060CD501980123E26904F1FA
:103B600028014078FEF74AFA78BB237C03F07F03F4
:103B70002374FCF753FB216A07460198FEF77BFC90
:103B80000546F8B9666AF37A314643F02003F372CA
:103B9000A2682068FEF741FCE16806F11C00FEF710
:103BA000A5FB394606F11600FEF7A0FB012301989C
:103BB000B574F574C370FFF77FFB0546237C23F0D3
:103BC00040032374284603B0F0BD0125FAE713B57E
:103BD0000446FFF7B4FF28B901A92046FEF7DCFB35
:103BE00000B9206002B010BD07B502AB43F8040D68
:103BF0001846FEF7B1FB0028A9BF034B0B20187035
:103C0000002003B05DF804FB2801002030B591B01E
:103C10000190002203A901A8FEF780FC044678B9B0
:103C2000039B10A840F8303D0199FFF790FB044634
:103C3000A0B99DF93B30002B05DA039B069A9A61E7
:103C4000204611B030BD9DF81630DB060AD5039D25
:103C50000B992878FEF7D3FBA861F1E7042808BF89
:103C60000524EDE70524EBE72DE9F043B7B001901B
:103C700088460746002203A901A8FEF74FFC064626
:103C8000B0B94546039B04939B690693DDF81890F1
:103C9000B9F1000F12D1454503D12F22019B013DFF
:103CA0005A55019B5B5D0135A84507F8013BF8D8E3
:103CB000002330463B7037B0BDE8F083202104A8D4
:103CC000FEF754FE002850D10A990398FEF7D3FB63
:103CD0000446002847D1039B0B991878FEF78FFB09
:103CE0002146069004A8FEF741FE00283DD10021A0
:103CF00004A8FEF7C6FF044668B9039B0B99187821
:103D0000FEF77DFB48450BD0214604A8FEF744FF93
:103D100004460028EBD0042C14BF26460226C7E731
:103D200010A904A8FFF726FA10AA2244927D631C6A
:103D300092B99D421BD3631EA5EB040C0CEB03024E
:103D40000199013B13F1020F01EB020006D1E4439C
:103D50002F232544037099E71C46E5E710A8184473
:103D6000C07D8854EAE70646A2E70646A0E711268A
:103D70009EE7F7B50D4601A90446FEF70DFB064682
:103D8000002859D1667C002E56D1E368AB4204D29C
:103D9000227C12F0020F08BF1D4600226369626197
:103DA0000DB92F461DE0019A57897F02002B39D0AB
:103DB000013B6A1EB2FBF7F2B3FBF7F18A4231D343
:103DC0007A421340A1696361ED1A002958D1002796
:103DD000E36865699D4281BF237CE56043F0400351
:103DE0002374C5F308053DB3E269974224D094F9E2
:103DF000103004F12805002B0ADA01980123294626
:103E00004078FEF7FBF8E0B9237C03F07F032374CE
:103E1000019801233A4629464078FEF7AFF880B969
:103E2000E76109E0A16879B92046FEF7E1FD0128C4
:103E3000014604D102266674304603B0F0BD01305D
:103E400001D10126F7E7A160A161BEE73B446361B0
:103E5000237CED1B9A0706D52046FEF7C9FD0146D7
:103E600028B905460FE02068FEF726FD01464B1CE9
:103E7000E7D00129DED9019BDB698B42DAD9A16148
:103E8000BD426369E2D863692B446361C5F30803EB
:103E9000002B9CD00198FEF745FA0028CAD000EB11
:103EA000552795E71FB50446019150B3002203A999
:103EB00001A8FEF733FB70B9039B019923602046EC
:103EC000FFF745FAF8B994F92B30002B0CDBA379F6
:103ED000DB0603D405200023236010E0039BE16987
:103EE0001878FEF78CFAA060039B0021DB8820463F
:103EF000A380FEF73BFD0428ECD00028EBD104B0F2
:103F000010BD0920FBE70428E4D0E4E713B501A9BC
:103F10000446FEF741FA00B9206002B010BD73B547
:103F20000D4601A90446FEF737FA20B9014620469E
:103F30001DB9FEF71BFD02B070BDFEF7A2FE10F02A
:103F4000FB06F8D129462046FFF714F931462046F2
:103F5000FEF722FE042808BF0020ECE730B58FB042
:103F600001900D46002202A901A8FEF7D7FA0446E7
:103F700070B9019902A8FFF7EAF9044640B99DF922
:103F80003330002B07DB1DB1294602A8FFF7F2F8FA
:103F900020460FB030BD0624FAE72DE9F04385B086
:103FA00001908846144603A9002201A8FEF7B6FA3C
:103FB000064640B9039DEF696B69BA1E93422560BE
:103FC00005D8C8F80030304605B0BDE8F0832B783E
:103FD000012B19D10227044639462846FEF76CFC0E
:103FE000431C37D0012837D000B90134039B013777
:103FF000DB69BB42F0D8039BC8F800401A795C61CA
:1040000042F001021A71DEE7A96A0446054635B995
:10401000039801F10109FEF72EFAF8B94946039A0F
:1040200002F1380312785819022A0BD15B5D4278ED
:10403000023553EA022308BF0134013FC5F30805E6
:10404000E5D1D8E7FEF74AF930F0704308BF0134F4
:104050000435F2E70126CEE70226CCE70646CAE79A
:1040600073B501A90446FEF797F9054638BB657C90
:104070002DBB237C990741D56369E26893421ED228
:1040800003BB2A46A1682046FEF726FD0646A5602A
:104090006369E360237C43F04003237466BB1B0623
:1040A0000DD501980123E26904F128014078FDF75C
:1040B000A5FF00BB237C03F07F032374354628460D
:1040C00002B070BDA1692068FEF7F6FB421C0146F4
:1040D0000BD001280BD0019BDB69834209D9A2696F
:1040E0002046FEF7F9FC0646D2E70126D0E7022675
:1040F000CEE72E46CCE701266674DFE70725DEE72C
:104100002DE9F0419CB00190022203A901A8FEF71D
:1041100005FA0446A8B9039B1CAD45F8603D01991A
:104120002846FFF714F9044658B99DF83B309A0623
:104130003FD41B063DD49DF8168018F0010F04D023
:10414000072420461CB0BDE8F081039F0B99387806
:10415000FEF755F918F0100F06460BD12846FEF76A
:1041600025FE04460028ECD1D6B90398FFF7A4F841
:104170000446E6E7BB698342E2D01290214610A8CC
:104180001097FEF7F3FB04460028DAD1014610A889
:10419000FEF777FD04460028D2D00428D1D1DDE710
:1041A000024631462846FEF797FC04460028DCD03C
:1041B000C7E70624C5E72DE9F04F91B00190022230
:1041C00003A901A8FEF7AAF90446002870D1039BB1
:1041D00010AE46F8303D01993046FFF7B8F8044676
:1041E000002875D0042863D19DF83B1011F0200100
:1041F00070D13046FEF7FCFB039A054653895B02FB
:104200000793002858D0012858D0431C58D0104696
:10421000FEF70FF90446FCF701F88146002C51D156
:1042200029460398FEF78FFC044600284AD14FF038
:104230002E0B4FF01008039C0B2204F13807384670
:104240002021FEF75BF804F14E0084F838B084F8C2
:1042500043804946FEF74AF83946012704F1580AD7
:104260002A460398FEF7D9F820225046FEF7BEF8FA
:1042700084F859B0069A51460398FEF7CEF8039B8E
:104280003046DF70FEF762FE0446D8B90B9C494603
:1042900004F11600FEF72AF821462A460398FEF795
:1042A000BCF8039884F80B80C770FFF705F8044644
:1042B000204611B0BDE8F08F0724ACE70224AAE73E
:1042C0000124A8E7002229463046FEF705FCEFE767
:1042D0000824EDE70624EBE7F0B5A5B0019024A88B
:1042E00040F8901DFEF738F8022203A901A8FEF756
:1042F00015F9002868D1039B24AC44F8603D01996E
:104300002046FFF724F800285ED19DF85B3013F0BB
:10431000A00F5BD12022139904A8FEF767F821466D
:1043200018A83022FEF762F8009918A8FFF70FF8D6
:1043300048B91A9A0E9B9A4203D11C9A109B9A4232
:1043400003D0082040E004283ED118A8FEF7FEFD67
:10435000002839D101271F9D13220DF11D0105F100
:104360000D00FEF743F89DF81B30039EDA0658BF98
:1043700043F02003EB72F770EB7ADB061DD50E9A43
:104380001A9B9A4219D029463078FEF738F8014630
:104390003046FDF7C7FF0146D0B13046FEF76BF857
:1043A00090B9039890F859302E2B06D11A9A00F143
:1043B0005801FEF732F8039BDF702046FEF7F6FC4B
:1043C00010B90398FEF778FF25B0F0BD0620FBE793
:1043D0000220F9E730B591B001900D46144603A9CB
:1043E000022201A8FEF79AF8C8B9039B10A840F86A
:1043F000303D0199FEF7ABFF88B99DF83B3013F0D3
:10440000A00F0ED10B9A0398D37A5D402C4004F094
:1044100027045C400123D472C370FEF74DFF11B036
:1044200030BD0620FBE710B590B001900C4602228B
:1044300003A901A8FEF772F8C8B9039B10A840F8B9
:10444000303D0199FEF783FF88B99DF83B3013F0AA
:10445000A00F0ED1E388A1880B9843EA01411630E2
:10446000FDF744FF01230398C370FEF725FF10B04A
:1044700010BD0620FBE770B590B001900D461646C2
:1044800003A9002201A8FEF749F80446002835D107
:1044900005B3039B0690014604A80493FEF766FA51
:1044A000A0BB012104A8FEF7ECFB78BB0B9B691EA7
:1044B0005A1E0A3312F8010F934201F8010FF9D185
:1044C000002105F10B039D42197003D013F8012D53
:1044D000202AF8D096B10398416AFDF7CCFF044634
:1044E00060B9039B1A78032A0ED0042A0CBF6420FB
:1044F000272038331844FDF7F1FE3060204610B015
:1045000070BD00232B70E5E74320F2E70428F8D0C4
:104510000446F3E770B596B00190022203A901A802
:10452000FDF7FCFF054678BB04AE0B222021304688
:10453000FDF7E4FE2C46019B1B781F2B1DD89DF830
:104540001030E52B1FD01CB1631EF25C202A2DD049
:104550000021039B0AA80A930C91FEF707FA05466F
:1045600090B901210AA8FEF78CFB50BB1198FCB151
:104570000B223146FDF73AFF1CE001A8FDF726FFAC
:10458000B0F5803F03D30625284616B070BD00F075
:104590002DFB40F2B51100F0F5FA0028F3D01E4AC9
:1045A00012F8013F93B38342FAD1ECE71C46CAE705
:1045B000E523037001230398C370FEF77DFE0546D3
:1045C000E2E70428FBD1002CDED001210AA8FEF787
:1045D00036FB05460028D7D1014620221198FDF769
:1045E0008DFE0822119B3146DA7211980B22C1E729
:1045F000092CC8D816AB2344020A03F8482C01340E
:1046000016AB234403F8480C013494E7FF28EFD895
:104610000A2CF5D9B7E700BF825A00082DE9F04F00
:1046200089B008AE46F80C0D30460D4617461C46BC
:10463000FDF792FE0028C0F23C82A24B03EB800300
:104640005B680BB100221A70C6B23046FDF7AEFBB4
:10465000C20700F13082430700F12F8206AA03212E
:104660003046FDF72FFD30B9069A531EB3F5004FC3
:1046700001D21A4201D00123069347B1924BA7F50C
:1046800000729A4203D9132009B0BDE8F08F7B1E57
:104690003B42F8D1129B5B0A0493002C00F00F827E
:1046A000002B00F00C8207AA01213046FDF70AFD1D
:1046B000002840F0E98015F008030CBF4FF03F09D7
:1046C0004FF000090293079B4B4501D20E20DBE718
:1046D000A3EB09037F2B0793F8D97A0A802AD2D853
:1046E00015F0020E07D005F00701022900F0ED8158
:1046F000E80740F1EA81E907C5D5002A3BD14FF030
:10470000010872481D0B30F8021F09B1A9421BD9DC
:10471000B3FBF8F540F6F5718D424FF020019BBFD9
:1047200005EB4505013502356D088CBF6D0003357D
:1047300005F2FF158CBF022701276D0A4FF0010B10
:104740000191E3E15200C5E14FEA4808DBE7022F9F
:104750001FD14FF6F571039888420ED9002A40F018
:10476000B0814FEA4802402AC7D9BEF1000F40F09D
:10477000AE81802AAAD89046CAE740F6F571039820
:1047800088420CD8002AA1D14FEA4802802AB4D925
:104790009CE740F6F573039A9A4297D801274FF4A5
:1047A000007200212046FDF7A9FD0B224849204652
:1047B000FDF71CFE00230222032FE37222736374B1
:1047C0004FF0010218BF0223079984F80EB0B1F52B
:1047D000803FCBF3072B84F80D8084F80FB0227450
:1047E000A37453D2E174C1F307212175F8236375D3
:1047F0003F234FF0000B2376FF2384F819B0A376F4
:1048000084F81BB0494604F11C00FDF76FFD032F2F
:1048100041D1FBF703FD014604F14300FDF766FDBE
:10482000294604F12400FDF761FD022384F82C30B1
:10483000012384F83030062384F83230802384F852
:10484000403029231322234984F82DB084F82EB058
:1048500084F82FB084F831B084F833B084F8423053
:1048600004F14700FDF7C2FD4FF0550384F8FE3117
:104870006FF055034A4684F8FF3121460123304644
:10488000FDF7BCFB834648B30120FDE604F12000A0
:10489000FDF72CFDAAE7FBF7C1FC014604F1270058
:1048A000FDF724FDC5F30723E375802384F8243046
:1048B0002923A57584F826301322074904F12B001B
:1048C000D0E700BF2801002000FEFF00A25A000828
:1048D000C25A0008CE5A0008E25A0008032F41D1FC
:1048E000012309F1060221463046FDF787FB4FF40C
:1048F000007259462046FDF701FD52232370637074
:10490000612341227221A37084F8E731039BE27096
:1049100084F8E41184F8E51184F8E621591E04F5C1
:10492000F470FDF7E3FC022384F8EC314FF05503FB
:1049300084F8FE316FF0550309F1070284F8FF3166
:104940002146012384F8EDB184F8EEB184F8EFB18B
:104950003046FDF753FB0123214609EB03023046A5
:10496000FDF74CFB129B002123F4FF7222F00102A1
:104970002046FDF7C3FC032F52D1F8232370FF23F9
:104980006370A370E37023716371A371E371237289
:104990006372A3720F23E372049B2146AB4228BFCC
:1049A0002B46524630469B46FDF728FB0146002821
:1049B0007FF46AAF4FF400722046FDF79FFCB5EB21
:1049C0000B05DA44E8D1019B032F08BF434601934E
:1049D000019B049A2146934228BF13463046524613
:1049E0001D46FDF70BFB00287FF44EAF019BAA4448
:1049F0005B1B0193ECD1032F1BD0079BB3F5803FCA
:104A000019D2022F14BF01230423029AAAB1002253
:104A100030461146FDF756FB003018BF012033E643
:104A2000012F5549204618BF6FF00701FDF75EFCC6
:104A3000B2E70C23E9E70623E7E74FF40072029997
:104A40002046FDF75BFC552284F8FE21AA2284F85B
:104A5000C23143F6C16384F8FF219DF80820012587
:104A600084F8BE2184F8C121079A49464A44B2FB22
:104A7000F3F2FE2384F8C331930843F03F0384F834
:104A8000C43184F8C52104F5E37084F8BF5184F87B
:104A9000C051FDF72BFC079904F5E570FDF726FCE6
:104AA0002B46029A21463046FDF7A8FA0028AED0E0
:104AB000EAE60B20E8E50320E6E50A20E4E511201C
:104AC000E2E5BEF1000F3FF401AE002A51D1012210
:104AD0002A485D0C30F8021F19B1A9427FF632AEA8
:104AE0000021B3FBF2F0264F8500A0F57F40F63899
:104AF00005F20725B8424FEA55253FF6E7AD904647
:104B00000A4600214FF0200B032701910199DDF89F
:104B100018C00BEB090A681850440CF1FF3101442E
:104B2000CCF1000C01EA0C0CC9EB0811ACEB000C49
:104B3000032F084406BFE344E24465448342FFF484
:104B4000C5ADA3EB0B010198491B091AB1FBF8F1A4
:104B5000032F03917FF4FBAD4FF6F5710398884264
:104B60003FF61DAE002A7FF4B1AD5FEA58023FF474
:104B7000ADAD1146B5E700BFF8FFFF00945A00083D
:104B8000FFFFFE0F7F2810B501D880B210BDB0F531
:104B9000803F03D240F2B513994206D00020F5E7DA
:104BA0000132802A03D1134606E00022044C34F877
:104BB000121093B28142F3D103F18000C0B2E5E755
:104BC000F65A00087F280DD940F2B513994208D152
:104BD000FF2806D8044B00F10040803833F810005D
:104BE00070470020704700BFF65A0008B0F5803FBC
:104BF000F0B522D21F4A83B2A2F1BC01B0F5805FAA
:104C000028BF0A46141D34F8042C2146A2B1934251
:104C100012D334F8025C2E0AEDB2AF18B84222DA91
:104C2000082E09D8DFE806F0050A10121416181A23
:104C30001C00801A34F810301846F0BD981A00F0A5
:104C400001001B1A9BB2F7E7103BFBE7203BF9E79B
:104C5000303BF7E71A3BF5E70833F3E7503BF1E762
:104C6000A3F5E353EEE70434002ECCD101EB45026B
:104C7000C8E700BFB25C0008F0B4860743D0541EFA
:104C8000002A3ED0CAB2034602E014F1FF3438D302
:104C900003F8012B9D07F8D1032C2BD9CDB245EA9F
:104CA00005250F2C45EA054516D9A4F110073F0943
:104CB00003F1200606EB071603F1100242E9045542
:104CC00042E902551032B242F8D104F00F04013724
:104CD000032C03EB07130DD91E462246043A032A80
:104CE00046F8045BFAD8221F22F003020432134470
:104CF00004F003042CB1C9B21C4403F8011B9C420C
:104D0000FBD1F0BC704714460346C5E7C9B200F0BA
:104D10000303002943D07BB10378002B67D099426D
:104D20003CD0431C05E013F8012B002A5DD08A42D9
:104D300034D09A071846F6D170B4046841EA0126C7
:104D400046EA064686EA0405A5F10133A4F10132DC
:104D500023EA050322EA0402134313F0803F0FD134
:104D600050F8044F84EA0605A5F10132A4F101339D
:104D700022EA050223EA0403134313F0803FEFD035
:104D8000037843B1994202D106E08B4204D010F877
:104D9000013F002BF9D1184670BC704770475BB1DA
:104DA0000378002BFAD0431C03E002780133002A79
:104DB000F4D099071846F8D10268A2F1013323EA2A
:104DC000020313F0803F08D150F8042FA2F1013301
:104DD00023EA020313F0803FF6D00378002BDDD0E6
:104DE00010F8013F002BFBD1704710467047184662
:104DF000704700BF80EA0102844612F0030F4FD1D2
:104E000011F0030F32D14DF8044D11F0040F51F899
:104E1000043B0BD0A3F101329A4312F0803F04BF50
:104E20004CF8043B51F8043B16D100BF51F8044B39
:104E3000A3F101329A4312F0803FA4F101320BD169
:104E40004CF8043BA24312F0803F04BF51F8043BEE
:104E50004CF8044BEAD023460CF8013B13F0FF0F4B
:104E60004FEA3323F8D15DF8044B704711F0010F7E
:104E700006D011F8012B0CF8012B002A08BF70474F
:104E800011F0020FBFD031F8022B12F0FF0F16BF46
:104E90002CF8022B8CF8002012F47F4FB3D170470E
:104EA00011F8012B0CF8012B002AF9D1704700BF33
:104EB00020F0030110F00300C0F1000051F8043BA2
:104EC00000F1040C4FEACC0C6FF000021CBF22FA78
:104ED0000CF213434FF0010C4CEA0C2C4CEA0C4C36
:104EE000A3EB0C0222EA030212EACC1204BF51F82F
:104EF000043B0430F4D0C2F1000102EA0102B2FA2C
:104F000082F2C2F11F0200EBD20070474F4B004407
:104F100049534B5F45525200494E545F455252002F
:104F20004E4F545F5245414459004E4F5F46494CE5
:104F300045004E4F5F5041544800494E56414C4940
:104F4000445F4E414D450044454E49454400455857
:104F500049535400494E56414C49445F4F424A45DB
:104F600043540057524954455F50524F544543549F
:104F7000454400494E56414C49445F4452495645C8
:104F8000004E4F545F454E41424C4544004E4F5FEA
:104F900046494C455F53595354454D004D4B46537C
:104FA0005F41424F525445440054494D454F55547A
:104FB000004C4F434B4544004E4F545F454E4F55B8
:104FC00047485F434F524500544F4F5F4D414E5944
:104FD0005F4F50454E5F46494C455300494E564140
:104FE0004C49445F504152414D4554455200005B8D
:104FF0004469736B20636F6E746F726C735D0A200B
:105000006469203C7064233E202D20496E697469D8
:10501000616C697A65206469736B0A206464205B43
:105020003C7064233E203C6C62613E5D202D204438
:10503000756D7020612073656372746F720A2064ED
:1050400073203C7064233E202D2053686F772064CA
:1050500069736B207374617475730A5B427566665D
:10506000657220636F6E74726F6C735D0A20626488
:10507000203C6F66733E202D2044756D7020776F45
:10508000726B696E67206275666665720A2062657A
:10509000203C6F66733E205B3C646174613E5D2022
:1050A0002E2E2E202D204564697420776F726B6937
:1050B0006E67206275666665720A206272203C70B7
:1050C00064233E203C6C62613E205B3C636F756EE6
:1050D000743E5D202D2052656164206469736B20ED
:1050E000696E746F20776F726B696E672062756688
:1050F0006665720A206277203C7064233E203C6C17
:1051000062613E205B3C636F756E743E5D202D20B6
:10511000577269746520776F726B696E672062756C
:105120006666657220696E746F206469736B0A200D
:105130006266203C76616C3E202D2046696C6C20B6
:10514000776F726B696E67206275666665720A5B5F
:1051500046696C652073797374656D20636F6E7436
:10516000726F6C735D0A206669203C6C64233E207C
:105170005B3C6D6F756E743E5D2D20466F7263658E
:1051800020696E697469616C697A65642074686508
:1051900020766F6C756D650A206673205B3C7061CC
:1051A00074683E5D202D2053686F7720766F6C7594
:1051B0006D65207374617475730A20666C205B3CA6
:1051C000706174683E5D202D2053686F77206120E8
:1051D0006469726563746F72790A20666F203C6D32
:1051E0006F64653E203C66696C653E202D204F70E3
:1051F000656E20612066696C650A206663202D203B
:10520000436C6F7365207468652066696C650A205D
:105210006665203C6F66733E202D204D6F766520BD
:10522000667020696E206E6F726D616C20736565AB
:105230006B0A206664203C6C656E3E202D20526512
:10524000616420616E642064756D702074686520EF
:1052500066696C650A206672203C6C656E3E202D86
:105260002052656164207468652066696C650A2057
:105270006677203C6C656E3E203C76616C3E202D4E
:1052800020577269746520746F20746865206669A0
:105290006C650A20666E203C6F72672E6E616D65CC
:1052A0003E203C6E65772E6E616D653E202D20524E
:1052B000656E616D6520616E206F626A6563740A58
:1052C000206675203C6E616D653E202D20556E6C0C
:1052D000696E6B20616E206F626A6563740A206676
:1052E00076202D205472756E636174652074686534
:1052F0002066696C652061742063757272656E74D6
:105300002066700A20666B203C6E616D653E202D24
:1053100020437265617465206120646972656374FD
:105320006F72790A206661203C617472723E203C83
:105330006D61736B3E203C6F626A656374206E61C1
:105340006D653E202D204368616E67652061747431
:10535000726962757465206F6620616E206F626A83
:105360006563740A206674203C796561723E203C56
:105370006D6F6E74683E203C6461793E203C686FBE
:1053800075723E203C6D696E3E203C7365633E2025
:105390003C6E616D653E202D204368616E6765201F
:1053A00074696D657374616D70206F6620616E2025
:1053B0006F626A6563740A206678203C7372632E9C
:1053C00066696C653E203C6473742E66696C653E4C
:1053D000202D20436F707920612066696C650A205A
:1053E0006667203C706174683E202D204368616EC2
:1053F00067652063757272656E7420646972656397
:10540000746F72790A206671202D2053686F77209F
:1054100063757272656E74206469726563746F720D
:10542000790A206662203C6E616D653E202D205316
:10543000657420766F6C756D65206C6162656C0AB1
:1054400020666D203C6C64233E203C747970653E80
:10545000203C6373697A653E202D20437265617438
:10546000652066696C652073797374656D0A2066C2
:105470007A205B3C6C656E3E5D202D204368616E3A
:1054800067652F53686F7720522F57206C656E67C2
:10549000746820666F722066722F66772F66782098
:1054A000636F6D6D616E640A5B4D69736320636F3A
:1054B0006D6D616E64735D0A206D645B627C687CF7
:1054C000775D203C616464723E205B3C636F756E67
:1054D000743E5D202D2044756D70206D656D6F727A
:1054E000790A206D66203C616464723E203C7661DE
:1054F0006C75653E203C636F756E743E202D2046B2
:10550000696C6C206D656D6F72790A206D655B62E8
:105510007C687C775D203C616464723E205B3C76F5
:10552000616C75653E202E2E2E5D202D2045646910
:1055300074206D656D6F72790A2074205B3C79650B
:1055400061723E203C6D6F6E3E203C6D6461793E21
:10555000203C686F75723E203C6D696E3E203C7346
:1055600065633E5D202D205365742F53686F77204F
:105570005254430A0A000000E8570008B8590008CE
:10558000BE590008C4590008CA59000853756E0076
:105590004D6F6E0054756500576564005468750062
:1055A000467269005361740072633D25752046524E
:1055B0005F25730A00566F6C756D65206E616D65B1
:1055C0002069732025730A004E6F20766F6C756D0D
:1055D00065206C6162656C0A0053544D333246316C
:1055E00030302074657374206D6F6E69746F720A49
:1055F000004C464E20456E61626C6564002C204371
:105600006F646520706167653A2025750A004375EF
:105610007272656E742074696D65206973202575DA
:105620002F25752F2575202532753A253032753A8C
:10563000253032752E0A00525443206973206E6F54
:105640007420617661696C61626C652E0A00253098
:105650003858203078253038582D002530385820DB
:105660003078253034582D002530385820307825B2
:105670003032582D0072633D25640A005044233AAD
:105680002575204C42413A256C750A0044726976B2
:10569000652073697A653A20256C7520736563749B
:1056A0006F72730A00426C6F636B2073697A653A9C
:1056B00020256C7520736563746F72730A004D65E5
:1056C00064696120747970653A2025750A00435336
:1056D000443A0A004349443A0A004F43523A0A0006
:1056E0005344205374617475733A0A00253034585A
:1056F00020253032582D003F3F3F0A0072633D2580
:10570000750A004641542074797065203D20257348
:105710000A0042797465732F436C75737465722047
:105720003D20256C750A004E756D626572206F66AE
:105730002046415473203D2025750A00526F6F7436
:105740002044495220656E7472696573203D20259E
:10575000750A00536563746F72732F464154203D80
:1057600020256C750A004E756D626572206F66208B
:10577000636C757374657273203D20256C750A0027
:10578000566F6C756D6520737461727420286C623D
:105790006129203D20256C750A0046415420737410
:1057A00061727420286C626129203D20256C750A85
:1057B0000044495220737461727420286C62612C19
:1057C000636C7573746F7229203D20256C750A0017
:1057D0004461746120737461727420286C62612961
:1057E000203D20256C750A0A00566F6C756D65208A
:1057F000532F4E20697320253034582D25303458CE
:105800000A000D25752066696C65732C20256C7562
:105810002062797465732E0A257520666F6C646545
:1058200072732E0A256C75204B694220746F746167
:105830006C206469736B2073706163652E0A256C3C
:1058400075204B694220617661696C61626C652EDE
:105850000A00256325632563256325632025752FAD
:10586000253032752F2530327520253032753A2596
:105870003032752025396C75202025730A002534B7
:10588000752046696C652873292C2531306C75208C
:10589000627974657320746F74616C0A25347520A5
:1058A000446972287329002C202531306C752062E0
:1058B0007974657320667265650A00667074723D5E
:1058C000256C75283078256C58290A00256C7520C0
:1058D00062797465732072656164207769746820E9
:1058E000256C75206B422F7365632E0A00256C753D
:1058F000206279746573207772697474656E20779D
:1059000069746820256C75206B422F7365632E0ABD
:10591000004F70656E696E67202225732200437206
:10592000656174696E67202225732200436F707968
:10593000696E672066696C652E2E2E000A256C75CF
:1059400020627974657320636F706965642077697C
:10595000746820256C75206B422F7365632E0A00D6
:1059600054686520766F6C756D652077696C6C2066
:10597000626520666F726D61747465642E20417279
:105980006520796F7520737572653F2028592F6ED9
:10599000293D00626C656E3D25750A0025752F2531
:1059A000752F257520257320253032753A25303224
:1059B000753A253032750A0046415431320046416D
:1059C0005431360046415433320065784641540024
:1059D0002530386C583A00202530325800202530C8
:1059E000345800202530384C58001F1C1F1E1F1E25
:1059F0001F1F1E1F1E1F01030507090E101214167C
:105A0000181C1E809A45418E418F80454545494965
:105A1000498E8F9092924F994F555559999A9B9CC8
:105A20009D9E9F41494F55A5A5A6A7A8A9AAABAC85
:105A3000ADAEAFB0B1B2B3B4B5B6B7B8B9BABBBC1E
:105A4000BDBEBFC0C1C2C3C4C5C6C7C8C9CACBCC0E
:105A5000CDCECFD0D1D2D3D4D5D6D7D8D9DADBDCFE
:105A6000DDDEDFE0E1E2E3E4E5E6E7E8E9EAEBECEE
:105A7000EDEEEFF0F1F2F3F4F5F6F7F8F9FAFBFCDE
:105A8000FDFEFF2B2E2C3B3D5B5D2F5C222A3A3C1A
:105A90003E3F7C7F0000010002000400080010006F
:105AA000200000000100040010004000000100027E
:105AB0000000222A3A3C3E3F7C7F002B2C3B3D5B82
:105AC0005D00EBFE904D53444F53352E30004E4F4A
:105AD000204E414D45202020204641543332202085
